:030000000200CC2F
:0C00CC00787FE4F6D8FD75810A0200037D
:10006E00000000000000000000FE03010103FE007E
:10007E00008080FFFF8080000000FF9191910000C2
:08008E0000000000000000006A
:10000300E4F509F50A1200D8E4F508E50825099096
:10001300006E93FD7C00AF08120096050AE50AD333
:100023009414400FE4F50A0509E509D3941E40032F
:0E003300E4F5090508E508C3940840CF80CA2B
:1000B800EF1FAA0670011E4A6009007D2B1DED6026
:0300C800EF80FACC
:0100CB002212
:02004100AD0709
:10004300E4FB7E007480A803088006CEA2E713CEEB
:1000530013D8F8FFEDF582EF558224FF92B4D2B6A0
:0A006300C2B60BBB08DCD2B5C2B573
:01006D002270
:0500D800C2B6C2B52212
:10009600AA07AF05120041AF02A8077480088002C4
:1000A600C313D8FCF4F5807F077E001200B8758074
:0200B600FF2227
:00000001FF
