:10051100044600000000044D00000000014C0001F1
:020521004B008D
:03000B000205BE2D
:1005BE00C0E0C0D0E54CC394325002054C758CFCA3
:0805CE00758A67D0D0D0E0323D
:03000300020344B1
:10034400C0E0C0D075D000C000C001C004C005C06A
:1003540006C007854C4A754C00758CFC758A670588
:100364004BE54AC394324011754BFE7549007548FC
:10037400007547007546008055C3E54B6480948042
:100384004034E54B648094A0502CE54AC394024069
:100394003DE47F01FEFDFC741F954BF9F81204C483
:1003A400E5494FF549E5484EF548E5474DF547E53C
:1003B400464CF5468018C3E54B648094A0400F85F5
:1003C400495085484F85474E85464D754B00D007AB
:0F03D400D006D005D004D001D000D0D0D0E03278
:1005D600438901758CFC758A67D28CD2A9D288D2E0
:0405E600A8D2AF22C6
:10056B00855045854F44854E43854D42E4F550F506
:0D057B004FF54EF54DAF45AE44AD43AC42DB
:010588002250
:1005230020200800000006005B004F0066006D00FD
:100533007D0007007F006F0077007C0039005E00BC
:03054300790071CB
:10046F00EFB40A00504B90047CF828287302049ACA
:10047F0002049C0204A00204A40204A80204AC0219
:10048F0004B00204B40204B80204BC8024758006D0
:10049F002275805B2275804F227580662275806D74
:1004AF002275807D227580072275807F2275806F6F
:0504BF0022E4F580229B
:0405EA007FE87E0325
:0B05EE00EF1FAC0670011E4C70F622DF
:040287008E428F43D1
:10028B007590F7E59064F7602C1205EAAF90EF24B8
:10029B0049601224E0601424F06016247070167A02
:1002AB00007B0880107A007B05800A7A007B028035
:1002BB00047A007B017590FBE59064FB602C1205C2
:1002CB00EAAF90EF2445601224E0601424F060162E
:1002DB00247070167A007B0980107A007B06800AE6
:1002EB007A007B0380047A007B0E7590FDE59064A9
:1002FB00FD602C1205EAAF90EF2443601224E060FE
:10030B001424F06016247070167A007B0A80107A21
:10031B00007B07800A7A007B0480047A007B0F75D0
:10032B0090FEE590B4FE06E543454260071205EAF0
:08033B007A007B0CAF03AE0257
:010343002297
:10000E00E4F530F531F532F533F534F535F536F5F1
:10001E0037F538F539F53AF53BF53CF53DF53EF556
:10002E003FF540F5411205D6E52B6432452A700D99
:10003E00F52AF52B7FA41205A58E288F29052BE511
:10004E002B7002052AC3E5299446E5289400500337
:10005E00E4F5A012056B8F2F8E2E8D2D8C2C120495
:10006E00D7011800FF10EF00CA00FF18E700A30029
:10007E00FF30CF013F00FF38C7018A00FF42BD01AC
:10008E00AF00FF4AB5016500FF5AA500F100FF7AE7
:10009E0085000001D2E533453270147F0112046FE2
:1000AE00D2A2D2A3D2A47532007533010201D2E4DA
:1000BE00FF12046FE4F532F5330201D2E535453413
:1000CE0070147F0212046FC2A2D2A3D2A4753400A0
:1000DE007535010201D2E4FF12046FE4F534F535F3
:1000EE000201D2E537453670147F0312046FD2A297
:1000FE00C2A3D2A47536007537010201D2E4FF12F5
:10010E00046FE4F536F5370201D2E539453870143F
:10011E007F0412046FC2A2C2A3D2A475380075392F
:10012E00010201D2E4FF12046FE4F538F539020141
:10013E00D2E53B453A700E7F0512046F753A007595
:10014E003B010201D2E4FF12046FC2A2C2A3C2A4F9
:10015E00E4F53AF53B806DE53D453C70137F0612A4
:10016E00046FC2A2D2A3C2A4753C00753D01805497
:10017E00E4FF12046FE4F53CF53D8048E53F453E53
:10018E0070137F0712046FD2A2C2A3C2A4753E00E1
:10019E00753F01802FE4FF12046FE4F53EF53F80BA
:1001AE0023E541454070137F0812046FC2A2C2A31B
:1001BE00C2A4754000754101800AE4FF12046FE489
:1001CE00F540F541AE2EAF2F120287EF24FFFDEE64
:1001DE0034FF6003020036ED14B409004003020040
:1001EE00369001FD75F003A4C58325F0C583730217
:1001FE00021802022102022F0202380202460202F5
:10020E004F02025D0202660202747F0112046FD277
:10021E00A280077F0212046FC2A2D2A3D2A4020050
:10022E00367F0312046FD2A280077F0412046FC2BE
:10023E00A2C2A3D2A40200367F0512046FD2A280FE
:10024E00077F0612046FC2A2D2A3C2A40200367F99
:10025E000712046FD2A280077F0812046FC2A2C2D7
:10026E00A3C2A4020036D2A0D2A1D2A2D2A3D2A4FB
:09027E00D2A5D2A6D2A7020036D7
:0B05F900C2B6D2B5D2B4D2B6C2B52251
:10058900C2B6E4FEEFC4131313540124FF92B4EF6F
:0B05990025E0FFC2B6D2B60EBE08E996
:0105A4002234
:10054700E4FFFEC2B6FDFCEF25E0FFEE33FED2B6B8
:10055700C2B6A2B7E43342070DBD00010CED640C2F
:030567004C70E4F1
:01056A00226E
:1005A500C2B6C2B51205897F06DFFED2B60000C20B
:0805B500B60000120547D2B5A3
:0105BD00221B
:030000000203E315
:0C03E300787FE4F6D8FD75815002042AF2
:1004C400E8600FEFC333FFEE33FEED33FDEC33FC96
:0304D400D8F1223A
:1004D700D083D082E4937012740193700DA3A39319
:1004E700F8740193F5828883E4737402936C701235
:1004F7007403936D700C7404936E70067405936F98
:0A05070060DDA3A3A3A3A3A380CA91
:1003EF0002000EE493A3F8E493A34003F68001F216
:1003FF0008DFF48029E493A3F85407240CC8C3330F
:10040F00C4540F4420C8834004F456800146F6DFDD
:10041F00E4800B0102040810204080900511E47E57
:10042F00019360BCA3FF543F30E509541FFEE493D2
:10043F00A360010ECF54C025E060A840B8E493A399
:10044F00FAE493A3F8E493A3C8C582C8CAC583CAC4
:10045F00F0A3C8C582C8CAC583CADFE9DEE780BE7C
:0105460000B4
:00000001FF
