:03000000020148B2
:0C014800787FE4F6D8FD75810A020154AE
:10013500FF7F3F1F0F070301003F065B4F666D7D85
:03014500077F6FC2
:1000FB0074352BF58274013AF583E493F5A07FB840
:02010B007E0B69
:0B010D00EF1FAC0670011E4C70F622C4
:1000D700E4FBFA1200FB0BBB00010AEB64094A7050
:1000E700F27A007B081200FBEB1B70011ABAFFF5CE
:0300F700BBFFF25A
:0100FA0022E3
:1001180020B004C2A080FC20B104C2A180FC20B29F
:0D01280004C2A280FC20B304C2A380FC220C
:10008E00E4FBFA7C007D0AAF03AE021200038F0878
:10009E007C007D0AAF03AE02120003E50890013E1C
:1000AE0093F580C2A17F307E7512010DD2A1ED9322
:1000BE00F580C2A57F307E7512010DD2A50BBB0057
:0800CE00010AEB64644A70BBF7
:0100D6002207
:0301540002008E18
:10000300C2D5EC30E709B2D5E4C39DFDE49CFCEE18
:1000130030E715B2D5E4C39FFFE49EFE120039C357
:10002300E49DFDE49CFC800312003930D507C3E452
:060033009FFFE49EFE2287
:10003900BC000BBE0029EF8DF084FFADF022E4CCAB
:10004900F875F008EF2FFFEE33FEEC33FCEE9DEC74
:10005900984005FCEE9DFE0FD5F0E9E4CEFD22EDBA
:10006900F8F5F0EE8420D21CFEADF075F008EF2F04
:10007900FFED33FD4007985006D5F0F222C398FDF5
:050089000FD5F0EA2292
:00000001FF
