:030000000200C635
:0C00C600787FE4F6D8FD75811902010D69
:1001770010093F065B4F666D7D077F6F3F7C3946F1
:050187004048010800E2
:04018D007FE87E0386
:0B019100EF1FAC0670011E4C70F62240
:10000300E4F5197590F7E59064F7602812018DAF58
:1000130090EF2449601124E0601224F060132470EF
:100023007012751901800D75190480087519078000
:100033000375190AE590B4F7FB7590FBE59064FB33
:10004300602812018DAF90EF2445601124E0601207
:1000530024F0601324707012751902800D75190550
:100063008008751908800375190DE590B4FBFB75BD
:1000730090FDE59064FD602812018DAF90EF24435D
:10008300601124E0601224F060132470701275195B
:1000930003800D7519068008751909800375190EFB
:1000A300E590B4FDFB7590FEE59064FE600D1201D2
:1000B3008DAF90EF2412700375190FE590B4FEFB1A
:0200C300AF1973
:0100C5002218
:08019C0074092FF8E6F580223A
:10015200E4FEFD120003AE07BE0D06E5082DFD808C
:10016200F2BE0E07C3ED9508FD80E8BE0FE5AF05B0
:0501720012019C80DE7B
:1000D200020152E493A3F8E493A34003F68001F2F1
:1000E20008DFF48029E493A3F85407240CC8C3332F
:1000F200C4540F4420C8834004F456800146F6DFFE
:10010200E4800B0102040810204080900177E47E15
:10011200019360BCA3FF543F30E509541FFEE493F2
:10012200A360010ECF54C025E060A840B8E493A3B9
:10013200FAE493A3F8E493A3C8C582C8CAC583CAE4
:10014200F0A3C8C582C8CAC583CADFE9DEE780BE9C
:01018C000072
:00000001FF
