:0300000002010DED
:0C010D00787FE4F6D8FD75811E020154D5
:1001BF000812FFFBF7F3EFEBE7E30A083F065B4F8D
:0601CF00666D7D077F6FE5
:10019900E4FDFCD3ED9FEE6480F8EC648098501583
:1001A900E4FBFA0BBB00010AEB647B4A70F50DBD59
:0501B90000010C80DED6
:0101BE00221E
:10000300E4F51DF51E751A0AF9F51B90000020B1E1
:1000130013051A7FC87E00120199E51AD39418407C
:1000230003E4F51A20B010097F647E00120199E9F8
:10003300D3943C4002E4F9E51A75F00A84FFE51A0B
:1000430075F00A8485F01C74082FF8E6F580851294
:10005300A07F017E00120199E4F5807408251CF845
:10006300E6F5808513A0120199E4F580E975F00A9D
:1000730084FFE975F00A8485F01C74082FF8E6F50F
:10008300808515A07F01120199E4F5807408251C71
:10009300F8E6F5808516A0120199E4F580E51B7555
:1000A300F00A84FFE51B75F00A8485F01C74082FA1
:1000B300F8E6F5808518A07F01120199E4F58074B4
:1000C30008251CF8E6F5808519A0120199E4F5804E
:1000D300051EE51E7002051D6450451D701DF51DAE
:1000E300F51E051BE51BB43C12E4F51B09B93C0BDB
:1000F300F9051AE51AB41803E4F51AA3E58264A70F
:0A0103004583600302001102000EA4
:10011900020003E493A3F8E493A34003F68001F2F9
:1001290008DFF48029E493A3F85407240CC8C333E7
:10013900C4540F4420C8834004F456800146F6DFB6
:10014900E4800B01020408102040809001BFE47E86
:10015900019360BCA3FF543F30E509541FFEE493AB
:10016900A360010ECF54C025E060A840B8E493A372
:10017900FAE493A3F8E493A3C8C582C8CAC583CA9D
:10018900F0A3C8C582C8CAC583CADFE9DEE780BE55
:0101D5000029
:00000001FF
