:030000000200AA51
:0C00AA00787FE4F6D8FD75810B0200039E
:0A00B6003F065B4F666D7D077F6F0C
:10000300C2A2C2A3C2A420B13C12009D20B1160516
:100013000BE50B7002050AD39409E50A9400400529
:10002300E4F50AF50BC3E5099432E5089400501092
:1000330020B10D12009D0509E50970E9050880E569
:10004300E4F508F50920B03F12009D20B019E50B37
:10005300150B7002150AD3E50B9409E50A940040C9
:1000630006750A00750B09C3E5099432E508940087
:10007300501020B00D12009D0509E50970E905082F
:1000830080E5E4F508F50974B6250BF582740035AF
:0A0093000AF583E493F580020009EA
:0C009D007F017E267D82DDFEDEFADFF6AC
:0100A9002234
:00000001FF
