:100540007FBFDFEFF7FBFDFE8040201008040201B3
:100302001E0F0000000000000000000000000000BE
:1003120000000000000000000000000000000000DB
:100322001E2D000000000000000000000000000080
:1003320000000000000000000000000000000000BB
:10014700E50A04FFEFD39400401B740E2FF8E6FE78
:10015700740F2FF8A606742C2FF8E6FE742D2FF8CF
:10016700A6061F80DFE50B24FE60191460241460C7
:100177002F24037039150FC3E50F64809480502E28
:10018700750F0722050FE50F75F00812000E85F0B1
:100197000F22052DE52D75F00812000E85F02D2292
:0E01A700152DC3E52D648094805003752D073F
:0101B5002227
:10040900E50E603524FE601414601B146022240379
:100419007027E50B64036021750B0422E50B640466
:100429006017750B0322E50B6402600D750B012241
:0A043900E50B64016003750B02225D
:1003CE00120269740E250AF8E6FD3395E0FCEF2D56
:1003DE00FFEE3CFE7C007D081200308D0C1202698F
:1003EE00740E250AF8E6FD3395E0FCEF2DFFEE3C8A
:0B03FE00FE7C007D081200308D0D22F7
:1004B100EF3395E0FE74402FF58274053EF583E439
:1004C10093FFED3395E0FC74482DF58274053CF5FE
:0904D10083E493FD7C0002052C7C
:10021200E4F558E558C3950A504C740F2558F8E692
:10022200FF3395E0FE74402FF58274053EF583E4BA
:1002320093FF742D2558F8E6FD3395E0FC74482DA4
:10024200F58274053CF583E493FD7C0012052CE5F0
:100252000C90054093FFE50D90054893FD7C00123C
:06026200052C055880ADDB
:010268002273
:10038D007E03EEC3950A5038740F2EF8E6B50F09AB
:10039D00742D2EF8E6652D601FE50FB50705E52DCB
:1003AD006D6015E50FB50306E52D655B600AE50F7C
:1003BD00B55C0AE52DB55D057580FF80FE0E80C22A
:0103CD00220D
:060349008F518D528B5311
:10034F0012040912021285545B85555C85565DAB0C
:10035F0053AD52AF5112038DE4F557E557C3950ACC
:10036F00501B740F2557F8E6B50C0E742D2557F852
:0D037F00E6B50D05050A1203CE055780DE18
:01038C00224E
:1002B600120500750A01750B03754B02754C027524
:1002C6004D02754E03754F037550021202691200F6
:1002D600038F0E854E54854F55855056AB4DAD4C0C
:1002E600AF4B120349AD4CAF4B1204B1AD4EAF4DFF
:0C02F6001204B1AD50AF4F1204B180CF24
:03000B000201B639
:1001B600C0E0C0F0C083C082C0D075D000C000C00F
:0D01C60001C002C003C004C005C006C00790
:1001D300758ACD758CD40508E508C3940F40067560
:1001E30008001204430509E509D3941E4006750966
:0401F30000120147AE
:1001F700D007D006D005D004D003D002D001D0005C
:0B020700D0D0D082D083D0F0D0E03205
:10051700EF1FAC0670011E4C600A7D027CEFDCFE0B
:04052700DDFC80EC8B
:01052B0022AD
:02047C00AD07CA
:10047E00C2B6C2B5E4FB7E007480A803088006CE27
:10048E00A2E713CE13D8F8FFEDF582EF558224FFC5
:10049E0092B4D2B60000C2B60BBB08DAD2B50000D9
:0204AE00C2B5D5
:0104B0002229
:10052C00AA07AF0512047C8A807F017E0012051792
:04053C007580FF22A5
:06034200016200016300EE
:05000300AF64E4F564A8
:0100080022D5
:1004DA00E4FF7590FFC2922094027F037590FFC2D9
:1004EA00912095027F012094027F027590FFC290AD
:0504FA002094027F04C4
:0104FF0022DA
:100443008563621204DA8F63E5627008E563B401C1
:1004530003756401E5627008E563B4020375640221
:10046300E5627008E563B40303756403E56270082D
:08047300E563B40403756404A1
:01047B00225E
:100500005389F0438901758ACD758CD4C28DD28C04
:07051000D2A9D2AFC2B9224B
:030000000200BB40
:0C00BB00787FE4F6D8FD75816402010234
:10000E00C2D530F707B2D563F0FF05F030E70CB27A
:10001E00D5F4048463F0FF05F080018430D502F43A
:02002E000422AA
:10003000C2D5EC30E709B2D5E4C39DFDE49CFCEEEB
:1000400030E715B2D5E4C39FFFE49EFE120066C3FD
:10005000E49DFDE49CFC800312006630D507C3E4F8
:060060009FFFE49EFE225A
:10026900AC5EAD5FAE60AF617810EC4D4E4F70047F
:100279007CA57DA5C3EC13FCED13FDEE13FEEF1376
:10028900FF5010EC64CCFCED644CFDEE644EFEEFC7
:1002990064CEFFD8DF8C5E8D5F8E608F61EE547FF8
:0D02A900FE228E5E8F5F74A5F560F5612268
:1000C7000202B6E493A3F8E493A34003F68001F297
:1000D70008DFF48029E493A3F85407240CC8C3333A
:1000E700C4540F4420C8834004F456800146F6DF09
:1000F700E4800B0102040810204080900302E47E94
:10010700019360BCA3FF543F30E509541FFEE493FD
:10011700A360010ECF54C025E060A840B8E493A3C4
:10012700FAE493A3F8E493A3C8C582C8CAC583CAEF
:10013700F0A3C8C582C8CAC583CADFE9DEE780BEA7
:0103480000B4
:10006600BC000BBE0029EF8DF084FFADF022E4CC7E
:10007600F875F008EF2FFFEE33FEEC33FCEE9DEC47
:10008600984005FCEE9DFE0FD5F0E9E4CEFD22ED8D
:10009600F8F5F0EE8420D21CFEADF075F008EF2FD7
:1000A600FFED33FD4007985006D5F0F222C398FDC8
:0500B6000FD5F0EA2265
:00000001FF
