:030000000200B843
:0C00B800787FE4F6D8FD75810702008A0D
:0400A9007F407E0D09
:0B00AD00EF1FAC0670011E4C70F62225
:10000300E4F5A0D2A01200A9D2A11200A9D2A21293
:1000130000A9D2A31200A9D2A41200A9D2A512004A
:10002300A9D2A61200A9D2A77FE07E931200ADC287
:10003300A01200A9C2A11200A9C2A21200A9C2A3C0
:100043001200A9C2A41200A9C2A51200A9C2A61235
:0B00530000A9C2A77FE07E930200AD71
:10005E00E4F5A0309002D2A0309102D2A1309202EB
:10006E00D2A2309302D2A3309402D2A4309502D2FF
:0C007E00A5309602D2A6309702D2A7222D
:10008A0020901520911220920F20930C2094092081
:0F009A00950620960330970302005E12000322A2
:00000001FF
