:030000000202C336
:0C02C300787FE4F6D8FD75815102030A33
:10034F001C28003F0006005B004F0066006D007D1B
:10035F000007007F006F0039007000400040202030
:10036F00080000044C04B005140001000200030053
:10037F000A000400050006000A0007000800090033
:01038F000A63
:10039100E4FDFCC3ED9FEC9E5015E4FBFA0BBB00A2
:0F03A100010AEB64784A70F50DBD00010C80E491
:0103B000222A
:1001980075900F7F027E00120391E590640F700343
:1001A80002022C900000AF82EF2404FFF8740108CB
:1001B8008002C333D8FCF4F5907F017E00120391CE
:1001C800E4FDFCAF057E007401A807088005C33371
:1001D800CE33CED8F9FFAB90EF5B7034AF057E001D
:1001E8007401A807088005C333CE33CED8F9FFAB16
:1001F80090EF5B60E775900FAF82EF75F008A4246D
:1002080008F8C374039D25E028F8E6FE08E6FF22F7
:100218000DBD00010CED64044C70A8A3E5826404D4
:0B0228004583708275900F7E057F7883
:0102330022A8
:100234008E508F51C3E5519464E55064809480508E
:1002440049E4F5A0AE50AF51FC7D0A12010DED2535
:10025400E02428F808E6F5807F057E00120391D398
:10026400E5519409E55064809480405275A004AE31
:1002740050AF517C007D0A12010DEF25E02428F8CF
:1002840008E6F5807F057E008031E551B44C19E520
:1002940050B40414E4F5A0853F807F05FE12039159
:1002A40075A0048541808013E551B4B011E550B4C4
:0F02B400040CE4F5A08541807F05FE1203912222
:10000300E4F54EF54FF546F547F54CF54D0200BDC9
:100013001201988E448F45C3E5459478E544648086
:10002300948550ECE545B41437E544B40532E54F07
:10003300454E700EE549254DF54DE548354CF54CDB
:10004300800DC3E54D9549F54DE54C9548F54CE5D7
:1000530090B40F09AF4DAE4C12023480F2E4805AD3
:10006300C3E545940AE544648094805024AE48AFC8
:10007300497C007D0A1200FBE5452FF549E5443E26
:10008300F548E590640F7088AF49AE48120234809A
:10009300F1E545B44C2BE544B40426E590B40F09CF
:1000A300AF45AE4412023480F2E549254DF54DE5E6
:1000B30048354CF54CE4F54EF54FF548F54902004B
:1000C30013E54564B07004E544640460030200135F
:1000D300E590B40F09AF45AE4412023480F2E5490E
:1000E300254DF54DE548354CF54C754E00754F01E2
:0800F300E4F548F54902001391
:1002CF00020003E493A3F8E493A34003F68001F242
:1002DF0008DFF48029E493A3F85407240CC8C33330
:1002EF00C4540F4420C8834004F456800146F6DFFF
:1002FF00E4800B010204081020408090034FE47E3D
:10030F00019360BCA3FF543F30E509541FFEE493F3
:10031F00A360010ECF54C025E060A840B8E493A3BA
:10032F00FAE493A3F8E493A3C8C582C8CAC583CAE5
:10033F00F0A3C8C582C8CAC583CADFE9DEE780BE9D
:01039000006C
:1000FB00EF8DF0A4A8F0CF8CF0A428CE8DF0A42E19
:02010B00FE22D2
:10010D00C2D5EC30E709B2D5E4C39DFDE49CFCEE0D
:10011D0030E715B2D5E4C39FFFE49EFE120143C341
:10012D00E49DFDE49CFC800312014330D507C3E43C
:06013D009FFFE49EFE227C
:10014300BC000BBE0029EF8DF084FFADF022E4CCA0
:10015300F875F008EF2FFFEE33FEEC33FCEE9DEC69
:10016300984005FCEE9DFE0FD5F0E9E4CEFD22EDAF
:10017300F8F5F0EE8420D21CFEADF075F008EF2FF9
:10018300FFED33FD4007985006D5F0F222C398FDEA
:050193000FD5F0EA2287
:00000001FF
