:0300000002076094
:0C076000787FE4F6D8FD7581220207A71F
:050A750000000000007C
:080A1D000615C9E3CACFB6C8F3
:10067C00120A6E120A0B1209841209C57FCF120AD4
:10068C004A7F43120A54E51B70061209F5020757FC
:10069C0020B126120A3D20B10C0514E514C39407B1
:1006AC004003E4F514E508C39432500A20B1071254
:1006BC000A3D050880EFE4F50830B0030207571235
:1006CC000A3D20B072741C2514F806741C2514F80D
:1006DC00E6540FD394094004740626F6741C2514B2
:1006EC00F8E6C394604008E51494025002E4F674F2
:1006FC001C2514F8E6C394244007E514B40202E464
:10070C00F6741C2514F8E6C394324007E514B403C0
:10071C0002E4F6741C2514F8E6C394134007E514A0
:10072C00B40402E4F6741C2514F8E6C394074007DD
:10073C00E514B405027601E508C39432500A20B0E2
:10074C0007120A3D050880EFE4F5081209DE1204D1
:04075C0052020692AD
:040452008E098F0A76
:10045600780B7C007D007BFF7A0A79757E007F052C
:10046600120393C3E5096480948050227FC9120A5F
:100476004A75992D3099FDC2997F2D120A54E50AC5
:10048600150A70021509630AFF6309FF80127FC906
:10049600120A4A7F2B120A5475992B3099FDC2997C
:1004A600AC09AD0AEC1202098F138E128D118C1055
:1004B600E4FFFE7DC87C40AB13AA12A911A8101256
:1004C60000FEE4FBFAF9783F12000D1202428E0993
:1004D6008F0AAE09AF0A7C277D101203B97E037F0F
:1004E600E8CFCDCFCECCCE1203B98F0BAE09AF0A73
:1004F6007C037DE81203B97E007F64CFCDCFCECCDE
:10050600CE1203B98F0CAE09AF0A7C007D641203CC
:10051600B97E007F0ACFCDCFCECCCE1203B98F0DD8
:10052600AE09AF0A7C007D0A1203B98D0E7FCA128E
:100536000A4AE50B2430FF120A54E50B2430F599DC
:100546003099FDC2997FCB120A4AE50C2430FF127E
:100556000A54E50C2430F5993099FDC2997FCC12E6
:100566000A4A7F2E120A5475992E3099FDC2997F38
:10057600CD120A4AE50D2430FF120A54E50D243047
:10058600F5993099FDC2997FCE120A4AE50E2430BC
:10059600FF120A54E50E2430F5993099FDC299E40C
:1005A600FF74152FF8E6F5993099FDC2990FBF062D
:1005B600F07FC0120A4AE51EC4540F2430FF120A07
:1005C60054E51E540F2430FF120A547F3A120A547F
:1005D600E51DC4540F2430FF120A54E51D540F24A0
:1005E60030FF120A547F3A120A54E51CC4540F24F1
:1005F60030FF120A54E51C540F2430FF120A547FB0
:1006060083120A4A7F32120A547F30120A54E522B4
:10061600C4540F2430FF120A54E522540F2430FF2D
:10062600120A547F2D120A54E520C4540F2430FFB9
:10063600120A54E520540F2430FF120A547F2D125B
:100646000A54E51FC4540F2430FF120A54E51F5400
:100656000F2430FF120A54AE09AF0A7C007D6412E3
:1006660003B9D3EF9416EE9400400AEF9420EE946B
:05067600005002B295E6
:01067B00225C
:100A0B00759850758920758780758DF3758BF3D22A
:020A1B008E2229
:070A6E00D288D2A8D2AF220A
:030003000207EC05
:1007EC00C0E0C0F0C083C082C0D075D000C000C0D3
:1007FC0001C002C003C004C005C006C007120A3DF8
:10080C0020B209631BFF751400120984D007D006AF
:10081C00D005D004D003D002D001D000D0D0D082EB
:07082C00D083D0F0D0E032D0
:0C0A3D007F017E267D82DDFEDEFADFF602
:010A4900228A
:10095A00C2A58F807F017E0012096BD2A77F057E18
:01096A00008C
:10096B00D3EF9400EE9400400F7DC77C01DCFEDDDD
:08097B00FAEF1F70EB1E80E88B
:010983002251
:0A0A4A00C2A7C2A612095AC2A722D1
:0A0A5400C2A7D2A612095AC2A722B7
:1009C5007F38120A4A7F0C120A4A7F06120A4A7FAA
:0909D50001120A4A7F80020A4A5D
:1009A700D3EF9400EE940040147D6E7C00ED1D7033
:0D09B700011CED4C70F7EF1F70E61E80E391
:0109C4002210
:10092F00C2B77F467E00EF1FAC0670011E4C70F6FB
:10093F00D2B7FEFF30B7110FBF00010ED3EF94886F
:0A094F00EE941340EF7F00227F01B9
:01095900227B
:0C087A0012092F7F017E001209A77FCC1D
:10088600E4FBFAC2B7050BE50B7002050AEF1392FB
:10089600B7750A00750B06E50B150BAC0A70021549
:1008A6000A4C70F3D2B7EFC313FF0BBB00010AEB80
:0508B60064084A70CE49
:0108BB00221A
:1008BC007D087C00C2B70FBF0000D2B70FBF00008D
:1008CC000FBF0000A2B7E433C43333335480FBE9C9
:1008DC00C3134BF97E007F04EF1FAA0670011E4A5A
:0D08EC0070F6ED1D70011CED4C70C9AF01E0
:0108F90022DC
:080A5E0012087A7F44020886A9
:080A660012087A7FBE02088627
:1009DE00E4FFFE120A5E120A661208BC8F091208A4
:0609EE00BCEFFEE509FF6D
:0109F40022E0
:0E0A2F0081838587898B8D80828486888A8C5E
:090A2500071C000012010102137C
:1008FA00C2B500C2B600D2B500E4FEEF1392B4EF5F
:10090A00C313FFD2B600C2B6000EBE08EEE4FEED77
:10091A001392B4EDC313FDD2B600C2B6000EBE08E0
:04092A00EEC2B50064
:01092E0022A6
:10083300C2B500C2B600D2B500E4FDEF1392B4EF27
:10084300C313FFD2B600C2B6000DBD08EE00E4FD2F
:10085300A2B4E433FFC43333335480FCEEC3134CEC
:10086300FED2B600C2B6000DBD08E5D2B600C2B4D2
:0608730000D2B400AF0644
:01087900225C
:10098400E4FD7F8E1208FAE4FCEC900A3693FF74BF
:100994001C2CF8E6FD1208FA0CBC07ED7D807F8E56
:0309A4000208FA4C
:1009F500E4FBEB900A2F93FF120833741C2BF8A627
:050A0500070BBB07ED2B
:010A0A0022C9
:100006000202AEE86480F8E933E83360110460F078
:10001600ED33EC337009E8FCE9FDEAFEEBFF220460
:1000260060DED3EB9FEA9EE99DE8C2E78CF0C2F75B
:1000360095F0400CE8CCF8E9CDF9EACEFAEBCFFB27
:1000460012027985D0F05804700320D5B3E8047005
:10005600075002B2D50202B892D5EC0460F7E4CCA0
:10006600C0E0C398F8603B94186008400DD0E0FBF0
:10007600020290E4FBFAC9FC8028E830E406E4C9F1
:10008600FBE4CAFCE830E305E4C9CACBFCE8540744
:100096006010F8C3E913F9EA13FAEB13FBEC13FC4F
:1000A600D8F130F52FC3E49CFCEF9BFFEE9AFEEDF2
:1000B60099FDD0E0FBEF4E4D4C701222DB0302029D
:1000C600B5EC2CFCEF33FFEE33FEED33FDED30E700
:1000D600EB020290EF2BFFEE3AFEED39FDD0E0FB8E
:1000E60050130BBB00030202B8ED13FDEE13FEEF37
:0800F60013FFEC13FC02029061
:1000FE00EC4D6011E8497017ED33EC3304600DE4FC
:10010E00FCFFFEFD22E933E8330470F80202AE1262
:10011E00027958046009E4CC248150062850090263
:10012E0002B82840030202B5C0E0EB4A7044B98021
:10013E0006D0E0FB0202A4EF4E701CBD8008EBFF60
:10014E00EAFEE9FD80EBE98DF0A4FEE5F00201E7A1
:10015E00E9CDF9EAFEEBFFEF89F0A4FCE5F0CE89DC
:10016E00F0A42EFFE435F0CD89F0A42DFEE435F099
:10017E008067EF4E7005BD80D780C3EF8BF0A4ACC7
:10018E00F0EE8BF0A42CFCE435F0F8EF8AF0A42C02
:10019E00E5F038FCE433CB8DF0A42CFCE5F03BF815
:1001AE00EE8AF0A42CFCE5F038F8E433CF89F0A405
:1001BE002CFCE5F038CF3400CE89F0A42FFFE5F00B
:1001CE003EFEE433C98DF0A42EFEE5F039CD8AF063
:1001DE00A42FFFE5F03EFEE43DFD33D0E0FB5007DB
:1001EE000BBB000F0202B8EC2CFCEF33FFEE33FE1C
:0601FE00ED33FD0202904A
:1002040075F020800E75F010800575F0087D007E75
:10021400007F003392D530D5031203EFEC33401046
:10022400EF33FFEE33FEED33FDEC33FCD5F0ED227E
:0E023400E5F0247EA2D513CC92E7CDCEFF22BA
:10024200EDD2E7CD33EC3392D524814006E4FFFEB4
:10025200FDFC22FCE4CFCECDCC24E0501174FF8013
:10026200EDC3CC13CCCD13CDCE13CECF13CF0470B0
:07027200F030D5DE0203EFBE
:10027900E9D2E7C933E833F892D5EDD2E7CD33ECCB
:0702890033FC5002B2D52244
:10029000EC30E7100FBF000C0EBE00080DBD0004CF
:1002A0000BEB6014A2D5EB13FCED92E7FD2274FF7B
:1002B000FCFDFEFF22E480F8A2D574FF13FC7D80D4
:0302C000E480EFE8
:10076C0002067CE493A3F8E493A34003F68001F221
:10077C0008DFF48029E493A3F85407240CC8C3338E
:10078C00C4540F4420C8834004F456800146F6DF5D
:10079C00E4800B0102040810204080900A1DE47EC6
:1007AC00019360BCA3FF543F30E509541FFEE49352
:1007BC00A360010ECF54C025E060A840B8E493A319
:1007CC00FAE493A3F8E493A3C8C582C8CAC583CA44
:1007DC00F0A3C8C582C8CAC583CADFE9DEE780BEFC
:010A2E0000C7
:1002C300E709F608DFFA8046E709F208DFFA803E1D
:1002D30088828C83E709F0A3DFFA8032E309F6080A
:1002E300DFFA8078E309F208DFFA807088828C8372
:1002F300E309F0A3DFFA806489828A83E0A3F60826
:10030300DFFA805889828A83E0A3F208DFFA804CFF
:1003130080D280FA80C680D4806980F280338010D6
:1003230080A680EA809A80A880DA80E280CA80333F
:1003330089828A83ECFAE493A3C8C582C8CCC583B7
:10034300CCF0A3C8C582C8CCC583CCDFE9DEE78087
:100353000D89828A83E493A3F608DFF9ECFAA9F006
:10036300EDFB2289828A83ECFAE0A3C8C582C8CC5C
:10037300C583CCF0A3C8C582C8CCC583CCDFEADE75
:10038300E880DB89828A83E493A3F208DFF980CCD7
:1003930088F0EF60010E4E60C388F0ED2402B404D0
:1003A3000050B9F582EB2402B4040050AF23234577
:0603B30082239003137386
:1003B900C2D5EC30E709B2D5E4C39DFDE49CFCEE5F
:1003C90030E715B2D5E4C39FFFE49EFE1203FDC3D7
:1003D900E49DFDE49CFC80031203FD30D507C3E4D2
:0603E9009FFFE49EFE22CE
:0E03EF00C3E49FFFE49EFEE49DFDE49CFC221F
:1003FD00BC000BBE0029EF8DF084FFADF022E4CCE4
:10040D00F875F008EF2FFFEE33FEEC33FCEE9DECAC
:10041D00984005FCEE9DFE0FD5F0E9E4CEFD22EDF2
:10042D00F8F5F0EE8420D21CFEADF075F008EF2F3C
:10043D00FFED33FD4007985006D5F0F222C398FD2D
:05044D000FD5F0EA22CA
:00000001FF
