:100303000812FFFBF7F3EFEBE7E30A083F065B4F47
:06031300666D7D077F6F9F
:1002C200F8E6F5808512A07F017E001202DDE4F5DA
:0B02D20080740829F8E6F5808513A071
:1002DD00E4FDFCD3ED9FEE6480F8EC64809850153E
:1002ED00E4FBFA0BBB00010AEB647B4A70F50DBD14
:0502FD0000010C80DE91
:0103020022D8
:0401EC008D2E8B2F9A
:1001F000EF75F00A84FEEF75F00A84A9F074082EFA
:100200001202C2E4F580E52E75F00A84FEE52E7533
:10021000F00A84A9F074082EF8E6F5808515A07E12
:10022000001202DDE4F580740829F8E6F5808516F1
:10023000A01202DDE4F580E52F75F00A84FEE52FBB
:1002400075F00A84A9F074082EF8E6F5808518A0E8
:100250007E001202DDE4F580AF0174082FF8E6F5A8
:0C026000808519A07F011202DDE4F5800A
:01026C00226F
:1000030075210AE4F522F52375241975250975264A
:10001300077527E7D200F52CF52D20B20D0020B28D
:1000230009B2007FC87E001202DD30000CAB23ADA5
:1000330022AF211201EC020121E52475F00A84F5B7
:1000430029E52475F00A84A9F0740825291202C24F
:10005300E4F580E52575F00A84F529E52575F00AB0
:1000630084A9F074082529F8E6F5808514A0120206
:10007300DDE4F580740829F8E6F5808515A0120201
:10008300DDE4F580AE26AF277C037DE812026DAB7D
:1000930007AE26AF277C037DE812026D7E007F64E6
:1000A300CFCDCFCECCCE12026D8F28AE26AF277C1C
:1000B300007D6412026D7E007F0ACFCDCFCECCCE01
:1000C30012026D8F29AE26AF277C007D0A12026DC6
:1000D300A905AF0374082FF8E6F5808516A07F0104
:1000E3007E001202DDE4F58074082528F8E6F58029
:1000F3008517A01202DDE4F58074082529F8E6F5DA
:10010300808518A01202DDE4F580AF0174082FF892
:10011300E6F5808519A07F011202DDE4F580052D47
:10012300E52D7002052C6450452C600302001DF57B
:100133002CF52D0523E523643C600302001DF52304
:100143000522E522643C600302001DF5220521E53A
:0D015300216418600302001DF52102001D4B
:030000000201609A
:0C016000787FE4F6D8FD75812F0201A71E
:10026D00BC000BBE0029EF8DF084FFADF022E4CC75
:10027D00F875F008EF2FFFEE33FEEC33FCEE9DEC3E
:10028D00984005FCEE9DFE0FD5F0E9E4CEFD22ED84
:10029D00F8F5F0EE8420D21CFEADF075F008EF2FCE
:1002AD00FFED33FD4007985006D5F0F222C398FDBF
:0502BD000FD5F0EA225C
:10016C00020003E493A3F8E493A34003F68001F2A6
:10017C0008DFF48029E493A3F85407240CC8C33394
:10018C00C4540F4420C8834004F456800146F6DF63
:10019C00E4800B0102040810204080900303E47EED
:1001AC00019360BCA3FF543F30E509541FFEE49358
:1001BC00A360010ECF54C025E060A840B8E493A31F
:1001CC00FAE493A3F8E493A3C8C582C8CAC583CA4A
:1001DC00F0A3C8C582C8CAC583CADFE9DEE780BE02
:0103190000E3
:00000001FF
