:0300000002026B8E
:0C026B00787FE4F6D8FD7581150201567D
:1001EC00EFB40A00504B9001F9F82828730202175B
:1001FC0002021902021D0202210202250202290238
:10020C00022D020231020235020239802475800669
:10021C002275805B2275804F227580662275806DF9
:10022C002275807D227580072275807F2275806FF4
:05023C0022E4F5802220
:1001560012029C120251EF700312025E1202A28F6B
:10016600151202A58F14E51424F8603B24F06021D3
:1001760024FC604024DA605224F0605C24F8603D80
:1001860024FC601A245270CBE4FF1201ECD2A28048
:10019600077F021201ECC2A2D2A3D2A480B57F03CC
:1001A6001201ECD2A280077F041201ECC2A2C2A304
:1001B600D2A4809F7F051201ECD2A280077F06128F
:1001C60001ECC2A2D2A3C2A480897F071201ECD29D
:1001D600A2C2A3C2A40201597F081201ECC2A2C2A4
:0601E600A3C2A4020159AE
:0B027700D288C289D2A8D2AFD2B82230
:100241005389F0438901E4F58AF58CC28DC28C2271
:0B028200AD07AC068C8CAF058F8A2204
:09028D00AF8CEFFEAD8AEDFF22FB
:06029600EF24FF928C2210
:06029C001202770202418C
:0D025100E5116006E4F5117F01227F002217
:0D025E00E50D6006E4F50D7F01227F002212
:0302A200AF132275
:0302A500AF122273
:03000300020006F2
:10000600C0E0C0F0C083C082C0D075D000C000C0C0
:1000160001C002C003C004C005C006C007E50E70DB
:100026000DFFFE1202827F01120296020111E50EF9
:100036006401704E12028D8E0F8F10E4FFFE1202C5
:1000460082D3E51094A6E50F942E4010E510948E09
:10005600E50F94325006750E02020114D3E5109492
:100066008CE50F94264018E5109474E50F942A50F9
:100076000E750D01E4FF120296750E0002011402C0
:100086000111E50E6402600302010E12028D8E0F4D
:100096008F10E4FFFE120282D3E5109414E50F944C
:1000A60002402BE51094FCE50F94055021E508135A
:1000B6001313541F2409F8C000E6FFE5085407FE91
:1000C600F87401088002C333D8FCF45F8033D3E5AB
:1000D600109426E50F94064035E510940EE50F942E
:1000E6000A502BE508131313541F2409F8C000E621
:1000F600FFE5085407FEF87401088002C333D8FCF4
:100106004FD000F605088006750800750E01E50853
:10011600C394204020750800E50AF4B5090FE50CE4
:10012600F4B50B09850913850B12751101E4FF124D
:100136000296750E00D007D006D005D004D003D0A5
:1001460002D001D000D0D0D082D083D0F0D0E0321F
:00000001FF
