:030000000200C239
:0C00C200787FE4F6D8FD7581200201096A
:0A02D5003F065B4F666D7D077F6FEB
:10025B000108001009003F003F003F003F003F0036
:09026B003F003F003FC180C101CA
:10000E0012027E1202B71202A130B105200102B215
:10001E0000A2B1920130004EE519540F9002D59313
:10002E00751700F518E519C4540F93751500F516DC
:10003E00E4F513F514E51A540F93751100F512E556
:10004E001AC4540F93750F00F510E4F50DF50EE577
:10005E001B540F93750B00F50CE51BC4540F9375D1
:10006E000900F50A80A0E51F540F9002D59375176D
:10007E0000F518E51E540F93751500F516E4F513EB
:10008E00F514E51D540F93751100F512E51DC454BA
:10009E000F93750F00F510E4F50DF50EE51C540FDA
:1000AE0093750B00F50CE51CC4540F93750900F500
:0400BE000A0200141E
:1002B700758902758C9C758A9CD2A9D2AFD28C2283
:03000B0002014EA1
:10014E00C0E0C083C082C0D075D000C000758000F2
:10015E00E508B40800504D90016CF8282873020190
:10016E00AC0201A80201A002019C020194020190BE
:10017E00020188020184C2A28002D2A2C2A3C2A43A
:10018E008022C2A28002D2A2D2A3C2A48016C2A290
:10019E008002D2A2C2A3D2A4800AC2A28002D2A29C
:1001AE00D2A3D2A4E50825E02409F808E6F58005D7
:1001BE0008E508D394074003750800D000D0D0D0CE
:0601CE0082D083D0E03274
:0E02C70081838587898B8D80828486888A8CCE
:0902740007190021090210020320
:10022200C2AFC2B500C2B600D2B500E4FEEF13926F
:10023200B4EFC313FFD2B600C2B6000EBE08EEE49E
:10024200FEED1392B4EDC313FDD2B600C2B6000E9A
:08025200BE08EEC2B500D2AFF8
:01025A002281
:1001D400C2AFC2B500C2B600D2B500E4FDEF1392BF
:1001E400B4EFC313FFD2B600C2B6000DBD08EE00D3
:1001F400E4FDA2B4E433FFC43333335480FCEEC3D0
:10020400134CFED2B600C2B6000DBD08E5C2B5005F
:0D021400D2B600C2B400D2B400D2AFAF0623
:0102210022BA
:10027E00E4FD7F8E120222E4FCEC9002CE93FF741A
:10028E00192CF8E6FD1202220CBC07ED7D807F8E44
:03029E0002022237
:1002A100E4FBEB9002C793FF1201D474192BF8A65B
:0502B100070BBB07ED87
:0102B6002225
:1000CE0002000EE493A3F8E493A34003F68001F23A
:1000DE0008DFF48029E493A3F85407240CC8C33333
:1000EE00C4540F4420C8834004F456800146F6DF02
:1000FE00E4800B010204081020408090025BE47E35
:10010E00019360BCA3FF543F30E509541FFEE493F6
:10011E00A360010ECF54C025E060A840B8E493A3BD
:10012E00FAE493A3F8E493A3C8C582C8CAC583CAE8
:10013E00F0A3C8C582C8CAC583CADFE9DEE780BEA0
:01027D000080
:00000001FF
