:03000000020003F8
:0C000300787FE4F6D8FD75811902004AF0
:0C0195000A0C3F065B4F666D7D077F6F14
:08018200F8E6F5807F647E00C1
:0B018A00EF1FAC0670011E4C70F62247
:10011A00E4F516F517AE16AF177C007D0A12008FAC
:10012A008E088F09AE16AF177C007D0A12008F8CDD
:10013A000A8D0BE4F518F519D2A2740C25091201DF
:10014A0082850C80C2A2740C250B120182850C8058
:10015A000519E51970020518C394C8E51864809456
:10016A008040D50517E51770020516C39464E51695
:08017A0064809480409F80988E
:10000F0002011AE493A3F8E493A34003F68001F2EC
:10001F0008DFF48029E493A3F85407240CC8C333F2
:10002F00C4540F4420C8834004F456800146F6DFC1
:10003F00E4800B0102040810204080900195E47EBB
:10004F00019360BCA3FF543F30E509541FFEE493B6
:10005F00A360010ECF54C025E060A840B8E493A37D
:10006F00FAE493A3F8E493A3C8C582C8CAC583CAA8
:10007F00F0A3C8C582C8CAC583CADFE9DEE780BE60
:0101A100005D
:10008F00C2D5EC30E709B2D5E4C39DFDE49CFCEE8C
:10009F0030E715B2D5E4C39FFFE49EFE1200C5C33F
:1000AF00E49DFDE49CFC80031200C530D507C3E43A
:0600BF009FFFE49EFE22FB
:1000C500BC000BBE0029EF8DF084FFADF022E4CC1F
:1000D500F875F008EF2FFFEE33FEEC33FCEE9DECE8
:1000E500984005FCEE9DFE0FD5F0E9E4CEFD22ED2E
:1000F500F8F5F0EE8420D21CFEADF075F008EF2F78
:10010500FFED33FD4007985006D5F0F222C398FD68
:050115000FD5F0EA2205
:00000001FF
