:10032200011000205015FF81BD81FFBF81BDFFB1CB
:10033200B585FF81B5B5FF81F7F1FF85B5B1FF85C1
:10034200B581FF81FDFDFF81B581FF81B5B100005F
:10035200000000000000000000000000000000009B
:10036200000000000000000000000000000000008B
:10037200000000000000086501020408102040800F
:0B038200016D000211000002080000E5
:1000030012048F1203A08F10E5107003020148122F
:10001300021B00E82B00FA2D004030005231006231
:100023003200723300823400923500A23600B237B8
:1000330000C23800D239010C3D0000013FAE11AFC0
:10004300127C007D0A1201D38E118F1202013FAE82
:1000530011AF127C007D0A1201D3EF2401807EAE22
:1000630011AF127C007D0A1201D3EF2402806EAE21
:1000730011AF127C007D0A1201D3EF2403805EAE20
:1000830011AF127C007D0A1201D3EF2404804EAE1F
:1000930011AF127C007D0A1201D3EF2405803EAE1E
:1000A30011AF127C007D0A1201D3EF2406802EAE1D
:1000B30011AF127C007D0A1201D3EF2407801EAE1C
:1000C30011AF127C007D0A1201D3EF2408800EAE1B
:1000D30011AF127C007D0A1201D3EF2409F512E45B
:1000E3003EF5118057851108851209E4F511F512C3
:1000F300F50E750F018045851108851209E4F51188
:10010300F512F5137514018033E51464014513707A
:1001130012C3E5099512F512E5089511F511E4F5F9
:1001230013F514E50F6401450E7011E5092512F569
:1001330012E5083511F511E4F50EF50FE4F5107F1E
:1001430064FE12044FD3E5129463E5116480948036
:100153004011AE11AF127C007D0A1201E58E118FA2
:100163001280E2AE11AF127C007D0A1201E58E0C03
:100173008F0DAE11AF127C007D0A1201E58C0A8D42
:100183000BE4F56DE50B25E025E0256D2415120440
:100193001E7F017E0012044FE4FF120429056DE562
:1001A3006DC3940440DE756D04E56DC3940840038C
:1001B300020006E50D25E025E0256D241112041E3D
:1001C3007F017E0012044FE4FF120429056D80D9DC
:0B041E00F8E6F5807465256DF8E6FF38
:10042900C2B5C2B6C2B4E4FEEF5480FDEF25E0FFC9
:10043900BD8004D2B48002C2B4D2B6C2B60EBE0820
:05044900E7D2B5C2B5C9
:01044E00228B
:10044F00E4FDFCC3ED9FEC9E5015E4FBFA0BBB00E3
:0F045F00010AEB647D4A70F50DBD00010C80E4CD
:01046E00226B
:0A04A000EF1F70011E144E70F722CA
:10038D00106E3738395F3435365F3132335F302B8D
:02039D002D3DF4
:1003EA002096047F0180027F002097047E0180020C
:1003FA007E00EE4FFF2095047E0180027E00EE4FC4
:10040A00FF2094047E0180027E00EE4F60037F018C
:04041A00227F00221B
:10046F00D293D292D291D290EF7003C29322BF0156
:10047F0003C29222BF0203C29122BF0302C2902283
:1003A000C293C292C291C2901203EAEF6401703705
:1003B0007F01FE12044F1203EAEF64017029FEAFC1
:1003C0000612046F209704746E80132096047472D2
:1003D000800C20950474768005209407747A2EF89A
:0903E000E6FF220EBE04D87F00E6
:0103E90022F1
:10048F00C293C292C291C290D297D296D295D29471
:01049F00223A
:0300000002029663
:0C029600787FE4F6D8FD75817D0202DD62
:1001D300EF8DF0A4A8F0CF8CF0A428CE8DF0A42E40
:0201E300FE22FA
:1001E500C2D5EC30E709B2D5E4C39DFDE49CFCEE35
:1001F50030E715B2D5E4C39FFFE49EFE120241C36A
:10020500E49DFDE49CFC800312024130D507C3E464
:060215009FFFE49EFE22A3
:10021B00D083D082F8E4937012740193700DA3A372
:10022B0093F8740193F5828883E473740293686086
:06023B00EFA3A3A380DF86
:1002A200020003E493A3F8E493A34003F68001F26F
:1002B20008DFF48029E493A3F85407240CC8C3335D
:1002C200C4540F4420C8834004F456800146F6DF2C
:1002D200E4800B0102040810204080900322E47E97
:1002E200019360BCA3FF543F30E509541FFEE49321
:1002F200A360010ECF54C025E060A840B8E493A3E8
:10030200FAE493A3F8E493A3C8C582C8CAC583CA12
:10031200F0A3C8C582C8CAC583CADFE9DEE780BECA
:01039F00005D
:10024100BC000BBE0029EF8DF084FFADF022E4CCA1
:10025100F875F008EF2FFFEE33FEEC33FCEE9DEC6A
:10026100984005FCEE9DFE0FD5F0E9E4CEFD22EDB0
:10027100F8F5F0EE8420D21CFEADF075F008EF2FFA
:10028100FFED33FD4007985006D5F0F222C398FDEB
:050291000FD5F0EA2288
:00000001FF
