:100525000812FFFBF7F3EFEBE7E30A083F065B4F23
:06053500666D7D077F6F7B
:1004E400F8E6F5808512A07F017E001204FFE4F592
:0B04F40080740829F8E6F5808513A04D
:1004FF00E4FDFCD3ED9FEE6480F8EC64809850151A
:10050F00E4FBFA0BBB00010AEB647B4A70F50DBDEF
:05051F0000010C80DE6C
:0105240022B4
:040363008D2E8B2F21
:10036700EF75F00A84FEEF75F00A84A9F074082E81
:100377001204E4E4F580E52E75F00A84FEE52E7597
:10038700F00A84A9F074082EF8E6F5808515A07E9A
:10039700001204FFE4F580740829F8E6F580851655
:1003A700A01204FFE4F580E52F75F00A84FEE52F1F
:1003B70075F00A84A9F074082EF8E6F5808518A070
:1003C7007E001204FFE4F580AF0174082FF8E6F50C
:0C03D700808519A07F011204FFE4F5806E
:0103E30022F7
:1000030075210AE4F522F52375241975250975264A
:10001300077527E7D200F52CF52D20B20D0020B28D
:1000230009B2007FC87E001204FF30000CAB23AD81
:1000330022AF21120363020121E52475F00A84F53E
:1000430029E52475F00A84A9F0740825291204E42B
:10005300E4F580E52575F00A84F529E52575F00AB0
:1000630084A9F074082529F8E6F5808514A0120404
:10007300FFE4F580740829F8E6F5808515A01204DD
:10008300FFE4F580AE26AF277C037DE8120441AB85
:1000930007AE26AF277C037DE81204417E007F6410
:1000A300CFCDCFCECCCE1204418F28AE26AF277C46
:1000B300007D641204417E007F0ACFCDCFCECCCE2B
:1000C3001204418F29AE26AF277C007D0A1204411A
:1000D300A905AF0374082FF8E6F5808516A07F0104
:1000E3007E001204FFE4F58074082528F8E6F58005
:1000F3008517A01204FFE4F58074082529F8E6F5B6
:10010300808518A01204FFE4F580AF0174082FF86E
:10011300E6F5808519A07F011204FFE4F580052D23
:10012300E52D7002052C6450452C600302001DF57B
:100133002CF52D0523E523643C600302001DF52304
:100143000522E522643C600302001DF5220521E53A
:0D015300216418600302001DF52102001D4B
:09053B0007301608071408370701
:05054500C2B5C2B622A0
:0603E40025F0FDEC3EFCDB
:0603EA008C1A8D1BAB070D
:1003F000D2B5E4FD7E007401A805088005C333CEA4
:1004000033CED8F9FFEBF582EF558224FF92B4D2B8
:10041000B6C2B60DBD08DDE4FD7E007401A8050876
:100420008005C333CE33CED8F9FFE51A5EFEE51B57
:100430005F4E24FF92B4D2B6C2B60DBD08DBC2B582
:010440002299
:02049600AD07B0
:10049800E4F9430501D2B5FB7E007401A803088086
:1004A80005C333CE33CED8F9FFEDF582EF5582245C
:1004B800FF92B4C2B6D2B60BBB08DDE4FBD2B6C21B
:1004C800B630B40DA8037401088002C333D8FC42C7
:0B04D800010BBB08E8C2B5C2B4AF01C5
:0104E30022F6
:10016000E4FDFC7F8E1203EAE53075F00A8475F039
:1001700010A4FFAEF0E53075F00A84EF7F8C120317
:10018000E4E53175F00A8475F010A4FFAEF0E531B6
:1001900075F00A847C00EF7F881203E4E53275F085
:1001A0000A8475F010A4FFAEF0E53275F00A847C85
:1001B00000EF25F0FDEC3EFC7F861203EAE5337587
:1001C000F00A8475F010A4FFAEF0E53375F00A84F0
:1001D0007C00EF25F0FDEC3EFC7F841203EAE53461
:1001E00075F00A8475F010A4FFAEF0E53475F00ADE
:1001F000847C00EF25F0FDEC3EFC7F821203EAE5F3
:100200003575F00A8475F010A4FFAEF0E53575F091
:100210000A847C00EF25F0FDEC3EFC7F801203EAAF
:10022000E53675F00A8475F010A4FFAEF0E536757A
:10023000F00A847C00EF25F0FDEC3EFC7F8A12037F
:0A024000EA7D807C007F8E0203EA55
:10024A007F8C120496EFC4540F75F00AA4FEEF5483
:10025A000F2EF5307F88120496EFC4540F75F00AFA
:10026A00A4FEEF540F2EF5317F86120496EFC45484
:10027A000F75F00AA4FEEF540F2EF5327F84120494
:10028A0096EFC4540F75F00AA4FEEF540F2EF533FF
:10029A007F82120496EFC4540F75F00AA4FEEF543D
:1002AA000F2EF5347F80120496EFC4540F75F00AAE
:1002BA00A4FEEF540F2EF5357F8A120496EFC4542C
:0C02CA000F75F00AA4FEEF540F2EF5365D
:0102D6002205
:030000000202D722
:0C02D700787FE4F6D8FD75813602031E26
:10044100BC000BBE0029EF8DF084FFADF022E4CC9F
:10045100F875F008EF2FFFEE33FEEC33FCEE9DEC68
:10046100984005FCEE9DFE0FD5F0E9E4CEFD22EDAE
:10047100F8F5F0EE8420D21CFEADF075F008EF2FF8
:10048100FFED33FD4007985006D5F0F222C398FDE9
:050491000FD5F0EA2286
:1002E300020003E493A3F8E493A34003F68001F22E
:1002F30008DFF48029E493A3F85407240CC8C3331C
:10030300C4540F4420C8834004F456800146F6DFEA
:10031300E4800B0102040810204080900525E47E50
:10032300019360BCA3FF543F30E509541FFEE493DF
:10033300A360010ECF54C025E060A840B8E493A3A6
:10034300FAE493A3F8E493A3C8C582C8CAC583CAD1
:10035300F0A3C8C582C8CAC583CADFE9DEE780BE89
:0105440000B6
:00000001FF
