:0300000002007A81
:0C007A00787FE4F6D8FD75810702006D68
:04005E007F107E276A
:0B006200EF1FAC0670011E4C70F62270
:10000300E4F5A0D2A012005ED2A112005ED2A21229
:10001300005ED2A312005ED2A412005ED2A512002B
:100023005ED2A612005ED2A77F507EC3120062C2C8
:10003300A012005EC2A112005EC2A212005EC2A3A1
:1000430012005EC2A412005EC2A512005EC2A61216
:0B005300005EC2A77F507EC302006267
:0C00860020B003C2A12220B102C2A022BF
:0D006D0030B00320B1030200861200032210
:00000001FF
